:100000000C94331A0C945D1A0C945D1A0C945D1ABE
:100010000C945D1A0C945D1A0C945D1A0C945D1A84
:100020000C945D1A0C945D1A0C945D1A0C945D1A74
:100030000C945D1A0C9463800C945D1A0C945D1AF8
:100040000C945D1A0C94087F0C9435950C945D1AF1
:100050000C94DE7E0C94AE7E0C945D1A0C945D1AAA
:100060000C945D1A0C945D1A0C945D1A0C945D1A34
:100070000C945D1A0C945D1A0C945D1A0C945D1A24
:100080000C945D1A0C945D1A0C945D1A77297C29E6
:1000900081298D29C129C1299929A129A929B529F0
:1000A000545D6D5D6D5D6D5D6D5D6D5D6D5D6D5D19
:1000B0006D5D6D5D6D5D6D5D6D5D6D5D6D5D6D5DF0
:1000C0006D5D6D5D6D5D6D5D6D5D6D5D6D5D165D37
:1000D000215D005DF55C9F5CAA5C175C0B5DD45CE8
:1000E000DF5C2C5D375D285C045C425DC95C6D5D46
:1000F000EA5CBE5CB55C6D5D6D5D6D5D7E5C895C72
:10010000945C6D5D6D5D6D5D6D5D6D5D6D5D165DD0
:10011000215D005DF55C9F5CAA5C175C0B5DD45CA7
:10012000DF5C2C5D375D285C045C425DC95C6D5D05
:10013000EA5CBE5CB55C6D5D6D5D6D5D7E5C895C31
:10014000945C18941B940E941294329432941F94DD
:10015000239429942D94084AD73B3BCE016E84BC4E
:10016000BFFDC12F3D6C74319ABD56833DDA3D0011
:10017000C77F11BED9E4BB4C3E916BAAAABE00005A
:1001800000803F05A84CCDB2D44EB93836A9020C38
:1001900050B9918688083CA6AAAA2ABE0000008011
:1001A0003F004E414E494E495459494E46CDCCCC64
:1001B0003D0AD7233C17B7D13877CC2B329595E63B
:1001C000241FB14F0A000020410000C84200401C1B
:1001D0004620BCBE4CCA1B0E5AAEC59D74496E76F5
:1001E000616C696420617263005472616E73666F42
:1001F000726D6174696F6E206D61747269783A0016
:1002000047333220002061745A3A00437572726598
:100210006E745A3A0050726F62696E67206861644A
:100220002072657475726E6564206572726F727388
:10023000202D206175746F6C6576656C696E672022
:1002400063616E63656C65642E0052656C617469F0
:10025000766520706F736974696F6E696E670041AF
:1002600062736F6C75746520706F736974696F6EFB
:10027000696E6700473332206C6576656C696E671E
:10028000206661696C65642100473239206C6576AF
:10029000656C696E67206661696C65642100473230
:1002A00039206C6576656C696E67206661696C657E
:1002B000642100473239200041646A7573746564B3
:1002C000207A206F726967696E005A2D70726F62B2
:1002D0006520617665726167652068656967687425
:1002E0003A00456E642066696C65206C6973740021
:1002F000426567696E2066696C65206C697374007D
:100300005344207072696E74696E672062797465F7
:1003100020004E6F74205344207072696E74696EB1
:10032000670057726974696E6720746F2066696C24
:10033000653A20006F70656E206661696C65642C9B
:100340002046696C653A20004372656174696F6E7E
:10035000206661696C6564004469726563746F72DC
:100360007920637265617465640050494420417569
:10037000746F74756E65206661696C6564212074A4
:10038000696D656F757400504944204175746F74D0
:10039000756E65206661696C6564212054656D70B9
:1003A0006572617475726520746F6F206869676823
:1003B00000204B643A2000204B693A2000204B700B
:1003C0003A200020436C61737369632050494400F4
:1003D0002054753A2000204B753A2000206D61783A
:1003E0003A2000206D696E3A200020643A200020F7
:1003F000626961733A2000504944204175746F74FA
:10040000756E65207374617274004E6F2063617342
:1004100065206C6967687473004D617854656D7010
:100420003A004469616D657465723A0041636365C1
:100430006C65726174696F6E3A004D6178537065D6
:1004400065643A004A65726B3A00457874722E0012
:100450004D617842656454656D703A005072696E02
:10046000746572547970653A436172746573696139
:100470006E005A54726176656C416363656C3A0034
:100480005954726176656C416363656C3A005854E7
:10049000726176656C416363656C3A005A507269AB
:1004A0006E74416363656C3A00595072696E7441B1
:1004B0006363656C3A00585072696E74416363659A
:1004C0006C3A005A53697A653A005953697A653A29
:1004D000005853697A653A005A4D61783A00594D8F
:1004E00061783A00584D61783A005A4D696E3A0089
:1004F000594D696E3A00584D696E3A0052657472F2
:10050000616374696F6E556E646F53706565643AAC
:100510000052657472616374696F6E556E646F45E5
:10052000787472614C6F6E674C656E6774683A00E0
:1005300052657472616374696F6E556E646F45784D
:100540007472614C656E6774683A005265747261CA
:100550006374696F6E5A4C6966743A0052657472BE
:10056000616374696F6E53706565643A00526574B7
:1005700072616374696F6E4C6F6E674C656E677401
:10058000683A0052657472616374696F6E4C656E8F
:100590006774683A004A65726B5A3A004A65726B32
:1005A00058593A005072696E746C696E65436163A4
:1005B00068653A00454550524F4D3A004175746F99
:1005C0006C6576656C3A005A50726F62653A00430A
:1005D0006173654C69676874733A00537570706F26
:1005E00072744C6F63616C46696C616D656E7463A7
:1005F00068616E67653A00537570706F7274473149
:10060000304731313A005A486F6D654469723A009B
:1006100059486F6D654469723A0058486F6D65447A
:1006200069723A00536F667477617265506F7765CF
:10063000725377697463683A004C43443A004661E8
:100640006E323A300046616E3A0053444361726440
:100650003A004865617465644265643A004D6978A2
:10066000696E6745787472756465723A004E756D8F
:1006700045787472756465723A00496E707574429B
:1006800075666665723A0042617564726174653AB6
:1006900000696E666F3A436F6E74696E75652066A9
:1006A000726F6D20666174616C2073746174650093
:1006B0000054657374696E6720666174616C2065AF
:1006C00072726F720029203D20002C0042656E641A
:1006D000696E672061742028004A616D206465623C
:1006E000756767696E673A004E6F20454550524FF7
:1006F0004D20737570706F727420636F6D70696CCC
:1007000065642E0D0A00536574204D6963726F7322
:1007100074657070696E6700436F6C6420657874EF
:10072000727573696F6E20646973616C6C6F776545
:100730006400436F6C6420657874727573696F6EC2
:1007400020616C6C6F7765640054726967676572CD
:10075000696E67207761746368646F672E204966ED
:10076000206163746976617465642C207468652007
:100770007072696E7465722077696C6C2072657333
:1007800065742E005761746368646F6720646973D1
:1007900061626C6564004175746F72657472616347
:1007A000743A00205A4A65726B3A004A65726B3A95
:1007B0000020746F200053657420766F6C756D6532
:1007C0007472696320657874727573696F6E2066E0
:1007D0006F72206578747275646572200044697365
:1007E00061626C656420766F6C756D6574726963A7
:1007F00020657874727573696F6E20666F722065FC
:100800007874727564657220004D31313420004671
:1008100049524D574152455F4E414D453A526570E0
:1008200065746965725F302E39322E39204649521F
:100830004D574152455F55524C3A68747470733A43
:100840002F2F6769746875622E636F6D2F726570E4
:1008500065746965722F52657065746965722D469D
:1008600069726D776172652F2050524F544F434F1C
:100870004C5F56455253494F4E3A312E30204D4130
:100880004348494E455F545950453A4D656E64653D
:100890006C2045585452554445525F434F554E5471
:1008A0003A312052455045544945525F50524F54B9
:1008B0004F434F4C3A330050696E2063616E206E97
:1008C0006F7420626520736574206279204D343224
:1008D0002C20697320696E2073656E736974697664
:1008E000652070696E732120002069732000496CB7
:1008F0006C6567616C20532076616C756520666F4E
:1009000072204D34320020746F2000536574206FC4
:1009100075747075743A200000010F150E12FE16E2
:10092000170E13FF03021A14FF1BFF0D0A01000E1E
:1009300007061F556E6B6E6F776E20636F6D6D616E
:100940006E643A0000000000000000890000000012
:100950000000000088000000000000000086000089
:1009600000000000000085004D0944095F09560998
:100970000358040200680903200402006C09000007
:100980000426044000960000000422044000950064
:100990000000044C040000BB000000044D040000F3
:1009A000BC000000042E04000090000000042A0493
:1009B00000008F000000042B0400008E00000004E3
:1009C0002C0400008D00000004290400008C0000AD
:1009D0000004130400005500000004120400005439
:1009E000000000041104000053000000041604007D
:1009F0000051000000041504000050000000041421
:100A00000400004F000000040F0400003800000044
:100A1000040E04000037000000040D04000035003F
:100A20000000040C04000034000000040B0400006B
:100A300033000000040A040000310000000409042F
:100A400000003000000004080400002F0000000334
:100A5000B2040000D000000002700900008700000E
:100A60000002770900008400000004100400008BDD
:100A700000C609BD09B409AB09A209990990097416
:100A80000C6B0C620C590C500C470C87097E093E0C
:100A90000CFC09F309EA09E109D809CF09440A3B2A
:100AA0000A320A290A200A170A0E0A050A680A5F8A
:100AB0000A560A4D0A0200001000710A02000006E0
:100AC00000910A02000008009D0A0200000400AD27
:100AD0000A000002B50A00000F00000002BC0A0074
:100AE000004E00000002C30A00003900000002CAE4
:100AF0000A00008A00000003820400000A010000CE
:100B000003810400003F00000003800400003E0059
:100B10000000037F0400003D000000037E0400008D
:100B20003C00000004BD040010E300000003B90411
:100B30000010E100000003B8040010E00000000312
:100B4000B6040010DF00000003B5040010DE000052
:100B50000003BE040010DD00000003B7040010DC39
:100B600000000003B4040000D2000000031E0400D3
:100B70000083000000031D04000082000000031C2D
:100B800004000081000000031B040000800000003E
:100B9000031A0408007F00000004520400007E00D5
:100BA000000004B60F00000901000004B50F0000AA
:100BB0000801000004B40F0000070100000000005D
:100BC0000000F20000000000000000AB0000000088
:100BD000000000007000000000000000006F000036
:100BE0000003542402000300000003E80300000493
:100BF0000000000100000000C900EC0AE30ADA0A64
:100C0000D10A6210190B100B070BFE0AF50A580BDC
:100C10004F0B460B3D0B340B2B0B220B970B8E0B04
:100C2000850B7C0B730B6A0B610BB20BA90BA00B32
:100C3000D60BCD0BC40BBB0BF10BE80BDF0B00008D
:100C4000042F0400009B00000004260420009A00EA
:100C50000000042504200099000000042404200062
:100C600098000000042304200097000000042204E0
:100C7000200094000000042D0400009300020000F6
:100C80000500FA0B0200000500040C02000007003A
:100C90000E0C02000007001C0C02000003002A0CCE
:100CA00003F0030400300C0200000300380C0000C5
:100CB0000000000000F70000000000000000DA0063
:100CC000740C6B0C620C590C500C470C3E0C000061
:100CD000027D0C00000D00000002840C00001100D9
:100CE0000000026911000010000000028B0C0010CF
:100CF000D900000002920C00007D000000023111BA
:100D000000000F000000022A1100000E0000000287
:100D1000381100000B0000000000000000E000009F
:100D2000000000000000DA0000000000000000DF0A
:100D30000000000000000000DA00000000000000D9
:100D400000E10000000000000000DA0000000000E8
:100D5000000000DE0000000000000000DA000000DB
:100D60000000000000DD0000000000000000DA00CC
:100D700000000000000000DC000000000000000097
:100D8000DA0000000000000000CF000000000000BA
:100D90000000CE0000000000000000CD00000000B8
:100DA00000000000CC00000002990C0000060100C9
:100DB00000025411000021000000023F1100002237
:100DC000000000025B1100001F000000024611003D
:100DD000002000000002621100001D000000024D12
:100DE0001100001E000000030004001016000000A7
:100DF00003FF0300101500000003FE0300101400A1
:100E0000000003440400002E00000002A00C0000BB
:100E100023000000033A04000028000000046204DC
:100E2000000025000000046104000024000000030D
:100E3000430400101C00000003310400101B0000DC
:100E40000003380400001A000000034704000018E3
:100E5000000000033704000017000000038813009F
:100E600000CB0000000448040000B1000000041F93
:100E7000040000B00000000457040000CA00000095
:100E800003FD0300101300000000000000006E00CE
:100E9000000000000000006D0000000000000000E5
:100EA0006C00000000000000006B0000000000006B
:100EB00000006A000000000000000069000000005F
:100EC0000000000068000000000000000067000053
:100ED0000000000000006600000000000000006547
:100EE000000000000000000064000000000000009E
:100EF000006300000000000000006200000000002D
:100F00000000006100000000000000006000000020
:100F100000000000005F00000000000000005E0014
:100F2000000000000000005D000000000000000064
:100F30005C00000000000000005B000000000000FA
:100F400000005A00000000000000005900000000EE
:100F500000000000580000000000000000570000E2
:100F60000003F40301024D00000003F90300014CEB
:100F700000000003F80301004B00000002A70C0270
:100F800000C900000003F70304004A00000003F654
:100F90000302044900000003F503010248000000B9
:100FA00003E80300000A00B70CAE0C0200000800C2
:100FB000C00C0D0D950F040DFB0CF20CE90CE00CB0
:100FC000D70CCE0C1F0D160D310D280D430D3A0D0B
:100FD000550D4C0D670D5E0D790D700D9D0D940D29
:100FE0008B0D820D7E0EF70DEE0DE50DDC0DD30D94
:100FF000CA0DC10DB80DAF0D090EA60D240E1B0EA6
:10100000120E090E000E7E0E750E6C0E630E5A0E39
:10101000510E480E3F0E360E2D0EA20E990E900E5A
:10102000870EC60EBD0EB40EAB0EEA0EE10ED80E44
:10103000CF0E0E0F050FFC0EF30E320F290F200FEF
:10104000170F560F4D0F440F3B0F950F8C0F830F4B
:101050007A0F710F680F5F0F9E0F000310270200B9
:10106000A70F000002AB0F0000A2002F2F2061632A
:1010700074696F6E3A726573756D650044656C6571
:1010800074696F6E206661696C65640046696C65A1
:101090002064656C65746564000200000900B20F8D
:1010A0000310270200C40F0310270200C80F03100B
:1010B000270200CC0F0310270200D00F03102702D5
:1010C00000D40F0310270200D80F526571756573A5
:1010D0007450617573653A000588130400DC0F2FA6
:1010E0002F20616374696F6E3A7061757365006972
:1010F0006D706F7274616E743A2046696C616D65D3
:101100006E74206368616E676520726571756972BF
:10111000656421004A616D20636F6E74726F6C208C
:1011200064697361626C65643A000200000C00E45B
:101130000F0200000500FC0F0200000A0006100369
:10114000FC0304001A1003FB030400221003FA033B
:1011500004002A1003EF030400321003EE0304001E
:101160003A1003ED030400421002000007004A1089
:101170000100000100581055495F414354494F4E4A
:101180005F484F4D455F5A200055495F41435449E0
:101190004F4E5F484F4D455F59200055495F4143D1
:1011A00054494F4E5F484F4D455F58200055495FA9
:1011B000414354494F4E5F484F4D45414C4C2000F0
:1011C000205072696E7465722073746F70706564FC
:1011D00020616E6420686561746572732064697350
:1011E00061626C65642064756520746F2074686941
:1011F00073206572726F722E204669782065727254
:101200006F7220616E6420726573746172742077EE
:10121000697468204D3939392E00666174616C3A01
:1012200000526573656E643A006F6B20004D697300
:1012300073696E67206C696E656E756D62657200AC
:1012400020676F7420004572726F723A657870651E
:1012500063746564206C696E652000736B6970202F
:10126000006F6B004563686F3A00446F6E652070D5
:1012700072696E74696E672066696C6500534420FC
:101280006572726F722066697865640053442065E8
:1012900072726F7220646964206E6F74207265636D
:1012A0006F76657221005344205265616420457257
:1012B000726F720053442072656164206572726FB0
:1012C0007200415454454E44455A00466F726D6158
:1012D00074206572726F7200205200204A0020490B
:1012E00000205000205300204600204500205A00D6
:1012F0002059002058007A2D70726F626520646951
:1013000064206E6F7420756E7472696767657220F1
:10131000616674657220676F696E67206261636BD6
:1013200020746F20737461727420706F73697469B4
:101330006F6E2E0020593A0020583A005A2D7072D4
:101340006F62653A007A2D70726F6265206469641D
:10135000206E6F7420756E74726967676572206F96
:101360006E2072657065746974697665206D65615B
:10137000737572656D656E74202D206D617962657F
:1013800020796F75206E65656420746F20696E63C7
:1013900072656173652064697374616E63652100B1
:1013A0005A2D70726F6265206661696C6564007A9F
:1013B0002D70726F6265207472696767657265640B
:1013C000206265666F7265207374617274696E67FE
:1013D0002070726F62696E672E0055495F414354F9
:1013E000494F4E5F45504F534954494F4E20005589
:1013F000495F414354494F4E5F5A504F53495449F6
:101400004F4E5F46415354200055495F4143544974
:101410004F4E5F59504F534954494F4E5F464153C9
:1014200054200055495F414354494F4E5F58504F37
:10143000534954494F4E5F46415354200055495F2C
:10144000414354494F4E5F5A504F534954494F4EB0
:10145000200055495F414354494F4E5F59504F5307
:101460004954494F4E200055495F414354494F4E1E
:101470005F58504F534954494F4E200020002F00D1
:10148000686F6D654178697320007C3C3E5E2B3D42
:101490003F2F5B5D3B2C2A225C000000420FA1071E
:1014A0001605D0030D038B022E02E801B20186015E
:1014B000630145012C0117010401F4000000000044
:1014C00000000000000000000000000024F403D928
:1014D00050C38EB1C2A23D96828B3582127AE372DE
:1014E000816CCB66A861015DC758EB546151204EF9
:1014F0001E4B5648C14559431A41013F093D2F3BF8
:101500007139CD374036C93465331432D430A32F06
:10151000802E6B2D632C672B752A8E29B028DC2733
:1015200010274B268F25D9242B248223E022432207
:10153000AC211A218D200420801F001F841E0C1E48
:10154000971D261DB81C4E1CE61B821B201BC11AB2
:10155000641A0A1AB2195D190A19B9186A181C18FE
:10156000D11788174017FA16B51673163116F115EC
:10157000B31576153A150015C7148F145814221494
:10158000EE13BA13881356132513F612C7129912C5
:101590006C1240121512EB11C11198117011481103
:1015A0002111FB10D610B1108D10691046102410B7
:1015B0000210E10FC00FA00F800F610F420F230F29
:1015C000060FE80ECB0EAF0E930E770E5C0E410E9B
:1015D000270E0D0EF30DDA0DC10DA80D900D780D2F
:1015E000600D490D320D1B0D050DEF0CD90CC30C10
:1015F000AE0C990C850C700C5C0C480C350C210C55
:101600000E0CFB0BE80BD60BC40BB20BA00B8E0B16
:101610007D0B6B0B5A0B4A0B390B290B180B080B64
:10162000F80AE90AD90ACA0ABB0AAC0A9D0A8E0A54
:10163000800A710A630A550A470A390A2C0A1E0AE7
:10164000110A040AF709EA09DD09D009C409B70932
:10165000AB099F09920987097B096F09630958093A
:101660004C09410936092B09200915090A09000905
:10167000F508EB08E008D608CC08C208B808AE08A0
:10168000A4089A08900887087D0874086B08610808
:1016900058084F0846083D0834082C0823081A0843
:1016A000120809080108F807F007E807E007D8075B
:1016B000D007C807C007B807B007A807A10720636D
:1016C000203D20002062203D2000706C616E653A54
:1016D0002061203D20004175746F6C6576656C69F2
:1016E0006E672064697361626C6564004175746F34
:1016F0006C6576656C696E6720656E61626C6564A9
:1017000000473020583131302059313130205A30A3
:1017100000473020583131302059313130205A3093
:10172000004175746F6C6576656C206D61747269CB
:10173000782072657365740044697361626C696EC8
:101740006720616C6C2068656174657273206475D4
:101750006520746F206465746563746564207365C7
:101760006E736F72206465666563742E0020646515
:10177000672E204300206D656173757265642000DB
:101780004572726F723A436F756C64206E6F74208D
:10179000686F6C642074656D7065726174757265D4
:1017A0002000206D73002061667465722000457210
:1017B000726F723A54656D702E2072616973656440
:1017C00020746F20736C6F772E2052697365203DF3
:1017D00020004F6E652068656174657220736565D1
:1017E0006D73206465636F75706C65642066726FDD
:1017F0006D20746865726D6973746F72202D20643A
:10180000697361626C696E6720616C6C20666F72CF
:101810002073616665747921004865617465722082
:101820006465636F75706C656400486561746564B8
:1018300020626564206578636565646564206D6118
:10184000782074656D706572617475726521002011
:10185000453A00205A3A00583A0020403A002042C7
:10186000403A00205241570020423A00202F0054B5
:101870003A0053706565644D756C7469706C793AA3
:1018800000466C6F774D756C7469706C793A0046E0
:10189000616E73706565643A0046696E2064652008
:1018A000636F757273653A25647000536574205ACE
:1018B000206F66667365743A2554326D6D0053650A
:1018C000742059206F66667365743A2554316D6DC6
:1018D000005365742058206F66667365743A25540A
:1018E000306D6D00536574207072696E74206F6680
:1018F00066736574730048617574657572205A2D3E
:10190000536F6E64653A257A68002544332033208E
:10191000436F7069657300254432203220436F7035
:1019200069657300254431203120436F706965007B
:1019300025443020417563756E6520436F7069657D
:10194000002558352053656C6563742E20457874E6
:10195000722E2036002558342053656C6563742E32
:1019600020457874722E2035002558332053656C3D
:101970006563742E20457874722E20340045787487
:10198000727564657573652036204F66660045780C
:1019900074727564657573652035204F6666004501
:1019A0007874727564657573652034204F666600BF
:1019B00054656D702E2036203A2565352F25453526
:1019C00002430054656D702E2035203A2565342F72
:1019D00025453402430054656D702E2034203A258D
:1019E00065332F254533024300202542436D6D00AA
:1019F000052565630200052565632F254563020003
:101A000000256F7300255566206D20496D70726941
:101A10006D6500255566206D0025557400583A25E2
:101A2000783020593A257831004D756C3A20256F71
:101A30006D202020453A257834005A3A2578322006
:101A400020427566203A20256F4200422565422FCC
:101A50002545620200052565632F25456302422561
:101A600065422F2545620200256F73004275663A74
:101A700020256F42004D756C3A20256F6D25252578
:101A800020FD202020453A202578346D00466C6FDB
:101A9000773AFD20256F662525252020205A3A25F6
:101AA0007832000E202565622F254562B020593A14
:101AB000257831000A202565302F254530B0205883
:101AC0003A257830004C616E67756500436F757418
:101AD000756D653A2542436D6D00436F7574756D84
:101AE00065004261746F6E20646520436F6C6C65A5
:101AF00000527562616E2076657274205045540004
:101B0000426C75652054617065004B6170746F6E36
:101B1000004275696C6454616B00417563756E2099
:101B20005265766574656D656E7400005265766504
:101B300074656D656E74206465204C69743A00525A
:101B400065766574656D656E74206465204C697496
:101B5000005374616E6462790053746F636B6167E4
:101B600065206427457874727573696F6E006369C8
:101B7000626C6573202E2E2E00417474656E646550
:101B80007A2054656D702E005265636861756666D3
:101B90006572204578747275642E00436C697175A6
:101BA000657A20706F75720049676E6F726572207A
:101BB0004D3130362025466900506F732E20536515
:101BC00072766F3A20256F53004175746F6C65769D
:101BD000656C3A20256C6C00436F6E74696E756598
:101BE00072206176656320436C69630046696C61AD
:101BF0006D656E7420686175742F62617300546F37
:101C000075726E657A204465706C6163657200431D
:101C100068616E67656D656E742046696C616D659F
:101C20006E74004368616E67656D656E7420466909
:101C30006C616D656E74005A2042616279737465DF
:101C4000702E3A256F596D6D00417272657420498E
:101C50006D70726573732E00546F7574206F7520EC
:101C60005269656E0054656D7073204D6F7274001B
:101C700041545820706F776572206F6E2F6F6666C3
:101C800000496D7072696D650046696C616D656EC5
:101C90007420496D7072696D650054656D707320B4
:101CA000496D7072657373696F6E00003A00206A47
:101CB0006F7572732000696D7072696D616E746505
:101CC000207072657465004361727465205344200E
:101CD000696E736572656500436172746520534473
:101CE0002072657469726565004174742E20556EAA
:101CF0006974733A2558556D6D004174742E2054E3
:101D0000656D702E2558540243004E6976656175E5
:101D10002064656C74610043616C63756C6572204E
:101D20004E6976656C6C656D656E74005265676CA6
:101D30006572205033005265676C65722050320026
:101D40005265676C6572205031005A2043616C699E
:101D5000622E005265676C6572205A3D30005265F4
:101D6000736574204D6573757265004D6F6E747286
:101D70006572204D657375726500466C6F77204DF6
:101D8000756C2E3A256F66252525005669742E2020
:101D90004D756C2E3A256F6D2525250020423A257C
:101DA00065622F25456202437E256F620045333A06
:101DB0002565322F25453202437E256F320045329C
:101DC0003A2565312F25453102437E256F31004587
:101DD000313A2565302F25453002437E256F30008E
:101DE00020453A2565632F25456302437E256F43D1
:101DF0000054616D706F6E3A256F420054656C65DA
:101E00006368617267656D656E742E2E004368614C
:101E100072672E20662E20454550524F4D00436F6D
:101E20006E66696775726174696F6E0053746F6373
:101E30006B2E2044616E7320454550524F4D004338
:101E40006F6E66696775726174696F6E004D6F744D
:101E50006575727320417272657465730053746F97
:101E6000707065004368617566662E204C69740069
:101E70004368617566662E204578747275642E001D
:101E8000416374696F6E3A256C61005049440042A9
:101E9000616E6742616E6700592D4F6666736574A7
:101EA0003A25587900582D4F66667365743A25585F
:101EB0007800504944204D61783A255844004472D6
:101EC000697665204D61783A25584D0044726976EF
:101ED00065204D696E3A25586D0050494420443ABA
:101EE0002558640050494420493A25586900505704
:101EF0004D20436F6E74726F6C3A25584D005465D7
:101F00006D7073204D6F72743A25587000504944BB
:101F100020503A25587000436F6E74726F6C653AAA
:101F2000255868004176616E636520717561643A79
:101F3000255861004176616E6365206C696E3A25B3
:101F4000586C00537461622E54656D70733A255855
:101F50007700416363656C3A255841004D617820F4
:101F600046523A2558460053746172742046523ADC
:101F7000255866005061732F4D4D3A255365004238
:101F8000617564726174653A256F630047656E65BB
:101F900072616C005B6D696E5D20303D4F6666005E
:101FA0004469732E2041707265733A202569700070
:101FB000417272657420416C696D2E005B6D696EB3
:101FC0005D20303D4F6666004469732E204170727B
:101FD00065733A20256973004172726574204D6FF4
:101FE00074657572730056656E74696C2E204D6150
:101FF000780056656E74696C2E20373525252500CE
:1020000056656E74696C2E20353025252500566581
:102010006E74696C2E20323525252500417272655B
:10202000742056656E74696C2E005669742E2056A5
:10203000656E74696C2E3A25467325252500566910
:10204000742E2056656E74696C2E004D696E3A25AB
:10205000737A204D61783A25735A005A3A257832BE
:10206000206D6D004D696E3A257379204D61783A87
:1020700025735900593A257831206D6D004D696EF0
:102080003A257378204D61783A25735800583A25DF
:102090007830206D6D004D696E3A25737A204D6160
:1020A000783A25735A005A3A257832206D6D004DE2
:1020B000696E3A257379204D61783A257359005934
:1020C0003A257831206D6D004D696E3A2573782080
:1020D0004D61783A25735800583A257830206D6D57
:1020E000003120636C6963203D2031206D6D004517
:1020F0003A257833206D6D00004D6178204275746B
:1021000065653A25735A004D696E204275746565A0
:102110003A25737A005A3A257832206D6D00004DC9
:1021200061782042757465653A257359004D696E72
:102130002042757465653A25737900593A257831DE
:10214000206D6D00004D61782042757465653A25FB
:102150007358004D696E2042757465653A25737831
:1021600000583A257830206D6D00004D617820428E
:10217000757465653A25735A004D696E2042757411
:1021800065653A25737A005A3A257832206D6D20BC
:1021900025647A25645A00004D6178204275746583
:1021A000653A257359004D696E2042757465653A2C
:1021B00025737900593A257831206D6D2025647991
:1021C00025645900004D61782042757465653A2593
:1021D0007358004D696E2042757465653A257378B1
:1021E00000583A257830206D6D2025647825645894
:1021F000004163637565696C3A25665A0041636303
:102200007565696C205A3A25665A004163637565A5
:10221000696C20593A256659004163637565696C9C
:1022200020583A256658004D61783A25667A004D67
:102230006178205A3A25667A004D617820593A250E
:102240006679004D617820583A25667800417661BC
:102250006E636500537570702E20666963686965EA
:102260007200496E73657265722043617274650015
:102270005265746972657220436172746500436FC0
:102280006E74696E75657220496D70726573732E18
:1022900000506175736520496D70726573732E000F
:1022A000496D7072696D2E20666963686965720098
:1022B000416E7469204F6F7A650044C383C2A97070
:1022C0006C61632E2041707265733A254F61004D39
:1022D000696E2E646973743A254F64004261636BC2
:1022E000736C2E203A254F620052657472616374DC
:1022F0002E203A254F7200254F32204F5053205246
:10230000617069646500254F31204F505320436C44
:1023100061737369712E00254F30204F5053204F49
:10232000666600466F6E63742E2061205669646590
:102330003A2564640045727265757273202020200E
:1023400020203A25646500496E666F2020202020F9
:10235000202020203A256469004563686F202020F2
:102360002020202020203A25646F00436861726796
:102370002E20662E20454550524F4D0053746F63FA
:102380006B2E2044616E7320454550524F4D0041E5
:102390006363656C65726174696F6E005A2D4A657E
:1023A000726B3A25614A004A65726B3A25616A0090
:1023B0004465706C61632E3A25615A004465706C07
:1023C00061632E205A3A25615A004465706C61633E
:1023D0002E20593A256159004465706C61632E20A6
:1023E000583A25615800496D7072696D2E3A256121
:1023F0007A00496D7072696D2E205A3A25617A0013
:10240000496D7072696D2E20593A25617900496DC8
:102410007072696D2E20583A2561780053657420DA
:102420004F726967696E002558312053656C65638A
:10243000742E20457874722E203300255831205395
:10244000656C6563742E20457874722E20320025E9
:1024500058302053656C6563742E20457874722E55
:10246000203100457874727564657573652033207A
:102470004F666600457874727564657573652032C1
:10248000204F6666004578747275646575736520C3
:1024900031204F66660054656D702E2032203A253B
:1024A00065322F25453202430054656D702E20326F
:1024B000203A2565312F25453102430054656D7062
:1024C0002E2031203A2565302F2545300243004C1F
:1024D00069742054656D703A2565622F2545620246
:1024E0004300506F736974696F6E20457874722E63
:1024F00000506F732E20526170696465205A00503D
:102500006F736974696F6E205A00506F732E20527A
:102510006170696465205900506F736974696F6EEA
:10252000205900506F732E205261706964652058E5
:1025300000506F736974696F6E2058004465736151
:10254000637469762E204D6F7465757273005265E1
:10255000676C657A20737572204F726967696E6562
:1025600000526566726F696469720045636C6169E7
:1025700072616765203A256C6F005072656368610F
:1025800075662E204142530050726563686175661E
:102590002E20504C41004163637565696C205A00E0
:1025A0004163637565696C205900416363756569B2
:1025B0006C2058004163637565696C2058595A0056
:1025C0004163637565696C2044656C7461004465A2
:1025D000626F6775657200436172746520534400D1
:1025E0004578747275646575736500506F736974AE
:1025F000696F6E00436F6E66696775726174696FAB
:102600006E00256F65005265676C616765732052C7
:10261000617069646573005265746F7572200100A2
:102620002A2A2A2A20455252455552202A2A2A2A45
:1026300000506173206465204361727465205344C7
:10264000004175205265706F7300496D707265733B
:1026500073696F6E00496D7072657373696F6E2E6A
:102660002E2E004E6F6E004F7569004E2F41004FA9
:102670006666004F6E0073266F266B2667266326FC
:1026800055264A26412631262026172606260226CA
:10269000F425EB25E025D725CE25C025B425AA2590
:1026A000A025962588257A256B2561254E253C2574
:1026B0003125232518250A25FF24F124E224CF24DF
:1026C000BC24A92496248524742463244F243B2409
:1026D00027241C240E240024F223E623D823CA2313
:1026E000BC23B023A7239C238F237C236B23592354
:1026F00047233523232317230623F722E922DC224D
:10270000CF22BA22B022A02291227E2270226222FF
:1027100054224D22432239222F22272219220B2212
:10272000FD21F121E121D321C521C421B421A6211C
:1027300098219721872179216B216A2161215321D9
:10274000452144213B212D211F211E211521072137
:10275000F920F820EF20E120D820C820BF20AF20AA
:10276000A62096208D207D20742064205B204B20A5
:102770003E202A201C200E200020F21FE61FD81F1A
:10278000C81FBC1FB01FA01F941F8C1F7F1F741F6A
:10279000671F5C1F521F431F341F241F171F0D1F6D
:1027A000FE1EEE1EE41EDA1ECC1EBE1EB21EA51EAE
:1027B000981E8F1E8B1E801E701E641E5D1E4D1E79
:1027C0003F1E2C1E1E1E0D1EFC1DF11DE01DCF1DEB
:1027D000BE1DAD1D9C1D8B1D7A1D6B1D5E1D531DE9
:1027E0004A1D401D361D2C1D171D0A1DFA1CE91C13
:1027F000D81CC71CB61CAE1CAC1CAB1C9A1C891C7C
:10280000811C701C651C581C491C371C231C0F1C88
:10281000FE1BEC1BD81BC91BB91BA81B9B1B881BD1
:10282000791B6E1B591B511B3F1B2C1B2B1B1A1B8F
:10283000111B0A1B001BF11AE21ADA1ACC1AC51A6C
:10284000B41AA31A8D1A751A6C1A681A551A4B1AEB
:102850003A1A291A1D1A191A131A051A011A001AF6
:10286000F619F019E919D619C319B0199F198E195B
:102870007D196919551941193019241917190A199F
:10288000F618E418D118BE18AB189918000000000B
:10289000000000000000000000007626000000009C
:1028A0000000000000002100240027002A00000092
:1028B0002200250028002B00000020002300260015
:1028C00029000202020202020202040404040404B7
:1028D00004040303030303030303010101010101D2
:1028E00001010102040810204080010204081020A8
:1028F000408001020408102040808040201008041D
:102900000201000000010200090A000000000403A7
:1029100008070000000000000000000000000000A8
:102920000000536F66747761726520526573657439
:10293000005761746368646F672052657365740043
:1029400042726F776E206F757420526573657400E4
:1029500045787465726E616C2052657365740050C1
:102960006F776572557000070601110A0411040A99
:102970001111001C1F11111F0000040A0A0A0E1F6A
:102980001F0E001F1111111F0000001F1F1F1F1F0E
:102990000000040A040000000000040E15040404F2
:1029A0001C007038303200427A687072696E74654B
:1029B0007200526570657469657220302E39322E4E
:1029C0003900467265652052414D3A007374617258
:1029D00074000400501D7C00D009A4001009CC0034
:1029E0008008F40010081C01B807440168076C0156
:1029F00028079401E806BC01B806E40188060C0229
:102A00006006340238065C0218068402F005AC0247
:102A1000D805D402B805FC02980524038005740388
:102A20005005C4032805140400056404D804B40444
:102A3000B0042C058004A40558041C062804940640
:102A400000040C07D803AC07A8034C087803EC0873
:102A500048038C092003A40AD0021C0BA802AC0C6A
:102A60002802FC0C0802C40DB801140E9801B40E23
:102A700038012C0FE000540FB8007C0F8800A40F21
:102A80004800F40F28FFFC0FC0F9000000008C0381
:102A90000800AE035000D603A000F703F0001804AE
:102AA0004001380490015904E0017A0430029A048C
:102AB0008002BB04D002FC0470032605C003860616
:102AC00030079709A00F750D201C520E401F1F0FD5
:102AD0006022FF0F803E0400081D900058091C0171
:102AE000B007A801C80634023006C002C0054C0376
:102AF0006805D80318056404D004F00498047C0524
:102B0000600408063004940600042007D003AC07D4
:102B1000A80338088003C408580350093003DC09AF
:102B20000803680AD802F40AB002800B88020C0C71
:102B30006002980C3002240DF801B00DC0013C0E6B
:102B40008001C80E3001540FB800B40F2800E00F08
:102B500000000400401D900060091C01B007A8019E
:102B6000D00634023806C002C8054C036805D803F5
:102B700018056404D804F00498047C056004080671
:102B80003004940600042007D003AC07A8033808DB
:102B90008003C408580350093003DC090803680A9D
:102BA000E002F40AB802800B88020C0C6002980C58
:102BB0003002240DF801B00DC0013C0E8001C80E9A
:102BC0003001540FB800B40F2800E00F00000400DB
:102BD0000016D800C006AC0178058002C00454037A
:102BE00048042804E803FC049803D0055003A40615
:102BF00018037807D8024C08A80220097002F409CB
:102C00003802C80A08029C0BD001700C9001440DD8
:102C10005001180EF800EC0E8800C00F00000400F0
:102C2000681D4C00500B94005809DC00500824012A
:102C3000A8076C012807B401C006FC017006440215
:102C400028068C02F005D402B8051C03880564032D
:102C50005805AC033005F40310053C04E804840473
:102C6000C804CC04A804140590045C057004A405F1
:102C70005804EC053804340620047C060804C40615
:102C8000F0030C07D8035407C8039C07B003E407FC
:102C900098032C08800374087003BC0858030409C7
:102CA00048034C09300394091803DC090803240A7B
:102CB000F0026C0AE002B40AC802FC0AB002440B3B
:102CC000A0028C0B8802D40B70021C0C5802640CFE
:102CD0004002AC0C2802F40C10023C0DF001840DF3
:102CE000D801CC0DB801140E98015C0E7001A40E31
:102CF0004801EC0E1801340FD8007C0F8800C40F77
:102D00000800FC0F000000000000000000000000B0
:102D100000000000000000000000000000000000B3
:102D2000000000000000000000000000401F4500FF
:102D300060094F0010095C00C0086B0070087D003E
:102D400020089200D007AC008007CC003007DE00DE
:102D5000E006230190065E014006A601F005FF0192
:102D6000A0056D025005F30200059603B0045A0455
:102D70006004400510044806C0036E077003A808ED
:102D80002003EB09D002230B8002410C3002390DE5
:102D9000E001040E9001A20E4001170FF000690F30
:102DA000A000A20F5000C60F0000DD0FB0FFEB0F18
:102DB00060FF0400700DD8004804AC015803800285
:102DC000D8025403800228043802FC040002D00513
:102DD000C801A4069801780770014C084801200931
:102DE0001801F409F000C80AC8009C0BA000700C80
:102DF0007000440D3800180E0000EC0EA8FFC00F44
:102E0000E8FE0400001B540060096400100974000F
:102E1000C008840070089C002008B800D007D800C3
:102E20008007000130072C01E00668019006AC0124
:102E300040060002F0056802A005E0025005740398
:102E400000052404B004F0046004DC051004E4066A
:102E5000C0030408700330092003780B8002600D62
:102E6000E001A80E4001680FA000C00F0000E80FAD
:102E700060FF0400801AD8009808AC012007800287
:102E800050065403C80528045805FC040005D00565
:102E9000B004A4066804780728044C08E803200955
:102EA000B003F4097003C80A38039C0BF802700CD5
:102EB000B002440D6802180E0802EC0E8801C00F23
:102EC0008800F00F00000000A00F5C00600969009E
:102ED00010097900C0088C007008A2002008BD000D
:102EE000D007DE008007050130073401E0066D01E0
:102EF0009006B20140060702F0056D02A005E80247
:102F000050057B0300052B04B004F8046004EB06B5
:102F1000C003350920037F0B8002650DE001B00E70
:102F200040011D0FF000480FC8006C0FA000ED0F0E
:102F300060FFFE0F48FE496E666F3A004572726F81
:102F4000723A00494E46004E414E0053656C65632F
:102F50007445787472756465723A003A005461720F
:102F60006765744578747200546172676574426570
:102F7000643A00C62E722E022EB22D000000000010
:102F8000002A2D1E2CCE2B522BD62A8A2AD2291C5F
:102F9000151C140000002243141F1F132E507269C9
:102FA0006E7465722073657420696E746F2064722C
:102FB000792072756E206D6F646520756E74696C12
:102FC00020726573746172742100206D61726B658B
:102FD00064206465636F75706C656400206D617258
:102FE0006B656420646566656374003A20776F7270
:102FF0006B696E67003A2074656D702073656E733F
:103000006F7220646566656374004F746865723A18
:103010000068656174656420626564000000206476
:10302000656320002064656620000400030065726B
:10303000726F722077726974696E6720746F206690
:10304000696C6500504944204175746F74756E65F4
:103050002066696E6973686564202120506C616325
:103060006520746865204B702C204B6920616E646C
:10307000204B6420636F6E7374616E747320696E8D
:103080002074686520436F6E666967757261746944
:103090006F6E2E68206F7220454550524F4D004490
:1030A0006F6E6520736176696E672066696C652E48
:1030B00000436F6E6669673A00534420696E697415
:1030C000206661696C0046696C652073656C656398
:1030D000746564002053697A653A0046696C65201E
:1030E0006F70656E65643A0066696C652E6F706519
:1030F0006E206661696C6564005A2D70726F62653E
:103100002073746174653A007A5F6D696E3A004CA1
:103110002000482000795F6D696E3A00785F6D6924
:103120006E3A00656E6473746F7073206869743AE8
:10313000200044656275674C6576656C3A00507294
:10314000696E7465724D6F64653A434E4300507208
:10315000696E7465724D6F64653A4C617365720097
:103160005072696E7465724D6F64653A46464600EA
:1031700000000000000000F300000000000000005C
:10318000F40000000000000000AF0000000000009C
:103190000000AC0000000000000000F30000000090
:1031A000000000005F00000000000000005B000065
:1031B000000000000000570000000000000000F3C5
:1031C0000000000000000000EE0000000000000011
:1031D00000ED0000000000000000EB008B318231A8
:1031E00079317031AF31A6319D319431D331CA314B
:1031F000C131B8310000000400DC310000000400DF
:10320000E4310000000400EC3157726F6E672063F8
:103210006865636B73756D000232FB31F431000039
:10322000003FCDCC4C3D0AD7A33B6F12033A0000C0
:103230002110422063308440A550C660E7700881A9
:1032400029914AA16BB18CC1ADD1CEE1EFF1311220
:10325000100273325222B5529442F772D6623993F9
:1032600018837BB35AA3BDD39CC3FFF3DEE3622470
:10327000433420040114E664C774A44485546AA549
:103280004BB528850995EEE5CFF5ACC58DD5533600
:10329000722611163006D776F6669556B4465BB799
:1032A0007AA719973887DFF7FEE79DD7BCC7C448D0
:1032B000E5588668A7784008611802282338CCC9E9
:1032C000EDD98EE9AFF9488969990AA92BB9F55A60
:1032D000D44AB77A966A711A500A333A122AFDDB39
:1032E000DCCBBFFB9EEB799B588B3BBB1AABA66C30
:1032F000877CE44CC55C222C033C600C411CAEED89
:103300008FFDECCDCDDD2AAD0BBD688D499D977E3F
:10331000B66ED55EF44E133E322E511E700E9FFFD8
:10332000BEEFDDDFFCCF1BBF3AAF599F788F88918E
:10333000A981CAB1EBA10CD12DC14EF16FE1801072
:10334000A100C230E3200450254046706760B98375
:103350009893FBA3DAB33DC31CD37FE35EF3B102C2
:103360009012F322D2323542145277625672EAB585
:10337000CBA5A89589856EF54FE52CD50DC5E23412
:10338000C324A01481046674476424540544DBA755
:10339000FAB79987B8975FE77EF71DC73CD7D32662
:1033A000F2369106B01657667676154634564CD9E5
:1033B0006DC90EF92FE9C899E9898AB9ABA94458B2
:1033C000654806782768C018E1088238A3287DCBB5
:1033D0005CDB3FEB1EFBF98BD89BBBAB9ABB754A02
:1033E000545A376A167AF10AD01AB32A923A2EFD45
:1033F0000FED6CDD4DCDAABD8BADE89DC98D267C52
:10340000076C645C454CA23C832CE01CC10C1FEF94
:103410003EFF5DCF7CDF9BAFBABFD98FF89F176EA1
:10342000367E554E745E932EB23ED10EF01E004095
:10343000145407FF55495F414354494F4E5F484F6D
:103440004D45414C4C2000005344207072696E740D
:103450002073746F70706564206279207573657273
:103460002E0000006FC911241FBECFEFD0E4DEBFD5
:10347000CDBF21E1A4E9B2E001C01D92A931B2079C
:10348000E1F712E0A0E0B1E0ECEDF6EA01E00BBFFD
:1034900002C007900D92A439B107D9F71AE1C3E32E
:1034A000DAE104C02197FE010E94B9D1C233D107ED
:1034B000C9F70E94C6C50C946CD30C9400002F92DF
:1034C0003F924F925F926F927F928F929F92AF92B4
:1034D000BF92CF92DF92EF92FF920F931F93CF9301
:1034E000DF93CDB7DEB7C55BD1090FB6F894DEBF69
:1034F0000FBECDBF1C0120912102DC010D911C915A
:10350000119724FF0FC002FF02C00C94FF3501FF8A
:1035100009C016968D919C9117978F36910511F0E1
:103520000C94FF3502FD02C00C94E625F101808564
:1035300091858531910509F40AC6F0F4843091052E
:1035400020F4029708F495C0B3C08A30910509F4BD
:10355000F4C528F4049709F4B6C50C94D1258B3032
:10356000910509F4ECC5449711F00C94D12581E044
:103570008093610D0C94DA258F31910509F4F4C61E
:1035800058F48D31910509F419C608F0CFC64C974F
:1035900009F4E0C50C94D1258A35910511F40C94F9
:1035A000082508F05AC0809711F00C94D12520917D
:1035B0003C0C30913D0C40913E0C50913F0CE696F6
:1035C0002CAF3DAF4EAF5FAFE69780E00E942990F1
:1035D00081E00E94E68C81E00E94618F1092FC0CD9
:1035E0001092FD0C1092FE0C1092FF0C1092F80C31
:1035F0001092F90C1092FA0C1092FB0C1092F40C31
:103600001092F50C1092F60C1092F70C19A21AA257
:103610001BA21CA21D8E1E8E1F8E18A2198E1A8E22
:103620001B8E1C8E1D8A1E8A1F8A188E198A1A8A62
:103630001B8A1C8A1D861E861F86188A19861A8672
:103640001B861C861D821E821F82188619821A8282
:103650001B821C82812C912C9DC68B35910511F407
:103660000C9414258C35910511F40C9423250C949D
:10367000D12512FF0FC0468D578D60A171A1809199
:103680001E0F452B462B472B11F0806201C08F7D0A
:1036900080931E0FC1010E940FAD882321F061E0CD
:1036A00081E00E94A34A81E00E9491C50C94DA2532
:1036B0002091E40C3091E50C4091E60C5091E70C20
:1036C000AA962CAF3DAF4EAF5FAFAA978091E80CA2
:1036D0009091E90CA091EA0CB091EB0CAE968CAFF6
:1036E0009DAFAEAFBFAFAE97C1010E940FAD8823B3
:1036F00011F40C94DA25D1011296EC901297E0FEA9
:1037000007C096968D909D90AD90BC90999703C000
:10371000812C912C5401F090610DFF2051F023E396
:1037200033E34BEC51E4C501B4010E94FBCC4B01E7
:103730005C01E1FE0EC0D1019A962D913D914D9113
:103740005C919D97A2962CAF3DAF4EAF5FAFA29715
:1037500006C0A2961CAE1DAE1EAE1FAEA297FF20E5
:1037600091F023E333E34BEC51E4A2966CAD7DADD5
:103770008EAD9FADA2970E94FBCCA2966CAF7DAFA1
:103780008EAF9FAFA2972091E40C3091E50C409151
:10379000E60C5091E70CED962CAF3DAF4EAF5FAF0E
:1037A000ED978091E80C9091E90CA091EA0CB09112
:1037B000EB0CC358DF4F88839983AA83BB83CD5713
:1037C000D0402091340C3091350C4091360C509102
:1037D000370CC757DF4F288339834A835B83C95827
:1037E000D04080910C0D90910D0DA0910E0DB091D7
:1037F0000F0DCF57DF4F88839983AA83BB83C158AE
:10380000D040E2FEFAC0D1019E962D913D914D919E
:103810005C91D197A6962CAF3DAF4EAF5FAFA69708
:10382000FF2091F023E333E34BEC51E4A6966CAD1B
:103830007DAD8EAD9FADA6970E94FBCCA6966CAFDA
:103840007DAF8EAF9FAFA697AA962CAD3DAD4EAD86
:103850005FADAA97ED966CAD7DAD8EAD9FADED974A
:103860000E9408CE2B013C01AE962CAD3DAD4EAD75
:103870005FADAE97C358DF4F688179818A819B81A4
:10388000CD57D0400E9408CEA2966CAF7DAF8EAFD0
:103890009FAFA29720E030E040E850E4A6966CADE0
:1038A0007DAD8EAD9FADA6970E94FBCCA6962CADAC
:1038B0003DAD4EAD5FADA6970E94FBCC6B017C0188
:1038C000A3019201C301B2010E94FBCC9B01AC0198
:1038D000C701B6010E9408CE6B017C01A2962CADF7
:1038E0003DAD4EAD5FADA297CA01B9010E94FBCCC0
:1038F0009B01AC01C701B6010E9408CE0E9414D101
:103900006B017C01A2962CAD3DAD4EAD5FADA29793
:10391000C301B2010E9465D09B01AC01C701B60191
:1039200090580E94ECCE6B017C019B01AC010E947F
:1039300058D1882331F08DED91E00E94909F0C9436
:10394000DA25F10180859185039721F4F7FAF09447
:10395000F7F8F09420E030E0A901A6966CAD7DADBB
:103960008EAD9FADA6970E9495CC87FF11C0F7FA48
:10397000F094F7F8F094A6962CAD3DAD4EAD5FAD4A
:10398000A6975058A6962CAF3DAF4EAF5FAFA69707
:10399000A7019601A2966CAD7DAD8EAD9FADA297AD
:1039A0000E94FBCC9B01AC01C301B2010E9408CE76
:1039B00020E030E040E05FE30E94FBCC4B015C0183
:1039C000A7019601C301B2010E94FBCC9B01AC018F
:1039D000A2966CAD7DAD8EAD9FADA2970E9409CE33
:1039E00020E030E040E05FE30E94FBCCA2966CAFA9
:1039F0007DAF8EAF9FAFA29710C0A2962CAD3DAD0C
:103A00004EAD5FADA297C501B4010E9465D0A696E8
:103A10006CAF7DAF8EAF9FAFA69711E0D101189626
:103A20008D919C911997029709F010E0A5019401DE
:103A3000AA966CAD7DAD8EAD9FADAA970E9409CEC2
:103A4000C357DF4F688379838A839B83CD58D040E7
:103A5000A2962CAD3DAD4EAD5FADA297AE966CADCE
:103A60007DAD8EAD9FADAE970E9409CECF56DF4F94
:103A7000688379838A839B83C159D0402091E00C6D
:103A80003091E10C4091E20C5091E30CE6962CAFA2
:103A90003DAF4EAF5FAFE697D501C401B058AA96CF
:103AA0008CAF9DAFAEAFBFAFAA97A2962CAD3DAD88
:103AB0004EAD5FADA2975058AE962CAF3DAF4EAF16
:103AC0005FAFAE97C357DF4F288139814A815B8151
:103AD000CD58D040ED966CAD7DAD8EAD9FADED97E0
:103AE0000E9408CE6B017C01CF56DF4F28813981BF
:103AF0004A815B81C159D040C358DF4F68817981C9
:103B00008A819B81CD57D0400E9408CE4B015C0139
:103B1000A7019601AA966CAD7DAD8EAD9FADAA971B
:103B20000E94FBCC2B013C01A5019401AE966CAD2B
:103B30007DAD8EAD9FADAE970E94FBCC9B01AC01DD
:103B4000C301B2010E9409CE2B013C01A5019401E1
:103B5000AA966CAD7DAD8EAD9FADAA970E94FBCCB1
:103B60004B015C01A7019601AE966CAD7DAD8EADAB
:103B70009FADAE970E94FBCC9B01AC01C501B40187
:103B80000E9408CEA30192010E9488CE6B017C01A5
:103B9000111109C02CEA35EC47E257E30E9495CC9D
:103BA00018164CF41EC02DEB37E346E855EB0E9487
:103BB00095CC87FF0CC02BED3FE049EC50E4C701EA
:103BC000B6010E9409CE6B017C01112351F02BED4F
:103BD0003FE049EC50E4C701B6010E9408CE6B01FA
:103BE0007C01A6962CAD3DAD4EAD5FADA697C7014D
:103BF000B6019F770E94FBCC4B015C012FE632E1BE
:103C000043E85AE30E9495CC87FDD4C740903C0C12
:103C100050903D0C60903E0C70903F0C20E030E0E6
:103C200040E752E4C301B2010E9452D01816F4F4E6
:103C30002DE83AE748E85CE3C301B2010E94FBCCFF
:103C40002B013C0120E030E040E450E40E9452D0DF
:103C500018162CF4412C512C60E4662E762CA3010E
:103C60009201C501B4010E94ECCE02C0C501B401AD
:103C70000E9494CF0E9465CFA4967FAF6EAFA497A9
:103C8000A4964EAD5FADA497452B31F481E090E052
:103C9000A4969FAF8EAFA497A496AEADBFADA497E8
:103CA000BD0180E090E00E949ACC4B015C019B0139
:103CB000AC01C701B6010E94ECCEE2966CAF7DAFBD
:103CC0008EAF9FAFE297C757DF4F688179818A81B6
:103CD0009B81C958D040E6962CAD3DAD4EAD5FAD51
:103CE000E697621B730B840B950B0E949CCCCF57FD
:103CF000DF4F288139814A815B81C158D0400E94C1
:103D0000FBCCA50194010E94ECCEC756DF4F68831F
:103D100079838A839B83C959D04020E030E040E01A
:103D20005FE3E2966CAD7DAD8EAD9FADE2970E94F4
:103D3000FBCCE2962CAD3DAD4EAD5FADE2970E945F
:103D4000FBCC9B01AC0160E070E080E89FE30E9447
:103D500008CECB56DF4F688379838A839B83C5590E
:103D6000D040E6966CAD7DAD8EAD9FADE6970E94DE
:103D70009CCCCF57DF4F288139814A815B81C15864
:103D8000D0400E94FBCCCB57DF4F688379838A8376
:103D90009B83C558D040A7963FADA797E3963FAF0A
:103DA000E397A8964FADA897E7964FAFE797A996E8
:103DB0002FACA997AA963FACAA97912C81E090E0EE
:103DC000E9969FAF8EAFE997E9968EAD9FADE997E3
:103DD000A496AEADBFADA4978A179B0708F037C174
:103DE000892D837029F40E94036080E00E948588F9
:103DF00098E199150CF45FC0CB56DF4F28813981CB
:103E00004A815B81C559D040AE966CAD7DAD8EAD1B
:103E10009FADAE970E94FBCC6B017C01E2962CAD6E
:103E20003DAD4EAD5FADE297E3966FADE397E7969C
:103E30007FADE797C1010E94FBCCA70196010E94CC
:103E400009CE7B018C01CB56DF4F288139814A8115
:103E50005B81C559D040E3966FADE397E7967FADA0
:103E6000E797C1010E94FBCC2B013C01E2962CADEF
:103E70003DAD4EAD5FADE297AE966CAD7DAD8EAD16
:103E80009FADAE970E94FBCC9B01AC01C301B20178
:103E90000E9408CEE3966FAFE397E7967FAFE79770
:103EA0001C019394C701D801AE968CAF9DAFAEAF05
:103EB000BFAFAE9763C0E996AEADBFADE997BD01A8
:103EC00080E090E00E949ACCE2962CAD3DAD4EADE4
:103ED0005FADE2970E94FBCC4B015C010E94E7CEF4
:103EE0006B017C01C501B4010E9406D14B015C014C
:103EF000A7019601AA966CAD7DAD8EAD9FADAA9738
:103F00000E94FBCC2B013C01A5019401A2966CAD53
:103F10007DAD8EAD9FADA2970E94FBCC9B01AC0105
:103F2000C301B2010E9409CEE3966FAFE397E79613
:103F30007FAFE7971C01A5019401AA966CAD7DADFA
:103F40008EAD9FADAA970E94FBCC4B015C01A701EF
:103F50009601A2966CAD7DAD8EAD9FADA2970E94ED
:103F6000FBCC9B01AC01C501B4010E9408CEAE960A
:103F70006CAF7DAF8EAF9FAFAE97912CC756DF4F22
:103F8000288139814A815B81C959D040CB57DF4FA5
:103F9000688179818A819B81C558D0400E9409CE71
:103FA000CB57DF4F688379838A839B83C558D04082
:103FB000AE962CAD3DAD4EAD5FADAE97CF56DF4F5B
:103FC000688179818A819B81C159D0400E9409CE44
:103FD0002B013C01E3962FADE397E7963FADE797C2
:103FE000A101C357DF4F688179818A819B81CD58B8
:103FF000D0400E9409CEB1E0BF93E9E4EF93F4E72B
:10400000FF9323E22F9330EF3F93CB57DF4FA880EE
:10401000B980CA80DB80C558D04010EFE12E13E292
:10402000F12E04E719E4A30192010E945CB2E99623
:104030004EAD5FADE9974F5F5F4FE9965FAF4EAF13
:10404000E9970F900F900F900F900F90BDCEC7572C
:10405000DF4F688179818A819B81C958D0400E9455
:104060009CCCCF57DF4F288139814A815B81C15871
:10407000D0400E94FBCC21E02F9329E42F9324E72A
:104080002F9323E22F9320EF2F935B016C0110EF0E
:10409000E12E13E2F12E04E719E4C358DF4F288123
:1040A00039814A815B81CD57D040ED966CAD7DADB5
:1040B0008EAD9FADED970E945CB20F900F900F9068
:1040C0000F900F9077C50E94DB8CF1018081918168
:1040D00093FF05C0C2A0D3A0E4A0F5A003C0C12CEB
:1040E000D12C760192FF0DC0D1015E962D913D91AC
:1040F0004D915C919197A8EEB3E00E94EECD6B01DB
:104100007C010E942995C60ED71EE81EF91E0E944A
:104110002995A7019601261B370B480B590BDA018D
:10412000C90181159449A543B74708F043C50E94CA
:10413000036081E00E948588EACF61E001C060E011
:104140008091230D9091240D0E94396F33C51092F8
:10415000610D30C581E0980128773327232B09F0C2
:1041600080E006FF08C01092E00C1092E10C109263
:10417000E20C1092E30C81111BC0C80188739927CF
:10418000892BD1F0A80195E0569547959A95E1F7CE
:104190004170B80124E0769567952A95E1F7617042
:1041A00033E0169507953A95E1F7802F817002C0AC
:1041B000482F682F0E946F7880E0D3C081E00E9472
:1041C000618F9090220D80E00E94299080913C0C9C
:1041D00090913D0CA0913E0CB0913F0CA2968CAFFB
:1041E0009DAFAEAFBFAFA297A12CB12CB8E4CB2E40
:1041F000B3E4DB2E10EFE12E13E2F12E04E719E415
:1042000020E030E04CE552E4CA01B9010E941F7081
:1042100040E060E081E00E94F070A6966CAF7DAF58
:104220008EAF9FAFA69720E030E04EE554EC0E94A1
:1042300095CC882309F45DC0A12CB12C88E4C82E4C
:1042400083E4D82E10EFE12E13E2F12E04E719E4F7
:1042500020E030E04CE552E460E070E08AE293E474
:104260000E941F7041E060E080E00E94F0702B012E
:104270003C0120E030E04EE554EC0E9495CC8823D0
:10428000C1F1A12CB12CF8E4CF2EF3E4DF2E10EF16
:10429000E12E13E2F12E04E719E420E030E040E2E1
:1042A00053E460E070E08AE293E40E941F7041E012
:1042B00061E080E00E94F0706B017C01A30192013B
:1042C000A6966CAD7DAD8EAD9FADA6970E9409CE32
:1042D000A70196010E9409CE2B013C0120E030E0AD
:1042E0004EE554ECC701B6010E9495CC81110C94A7
:1042F0000A3610E081E00E9498B083EB92E00E94C1
:10430000A4860E94468EA2968CAD9DADAEADBFAD8B
:10431000A29780933C0C90933D0CA0933E0CB093DD
:104320003F0C111147C48EE992E017C013FF02C081
:1043300062A101C063E0162F11706695617041E0C3
:10434000812F0E94F07020E030E04EE554EC0E9496
:1043500095CC811105C089E892E00E94A95E2AC42B
:10436000812F0E9498B026C40E94F4B60E94F4B631
:1043700089EF90E30E943A998091260D87FD03C052
:104380008FE091E302C082E191E30E943A990E949A
:10439000018810C4B401092C000C880B990B0E94F1
:1043A0009CCC6B017C0120E030E046E652E40E94A8
:1043B000FBCC20E030E04CE552E40E9409CEA6960A
:1043C0006CAF7DAF8EAF9FAFA69720E030E0A90124
:1043D000C701B6010E94FBCC20E030E04CE552E47E
:1043E0000E9409CEAA966CAF7DAF8EAF9FAFAA9701
:1043F000212C312CB101032C000C880B990B0E944D
:104400009CCC6B017C0120E030E046E652E40E9447
:10441000FBCC9B01AC01A6966CAD7DAD8EAD9FAD86
:10442000A6970E9409CE2B013C0120E030E042E536
:1044300052E4C701B6010E94FBCC9B01AC01AA96D5
:104440006CAD7DAD8EAD9FADAA970E9409CEA296B0
:104450006CAF7DAF8EAF9FAFA297A12CB12C58E46B
:10446000C52E53E4D52E10EFE12E13E2F12E04E712
:1044700019E49B01AC01C301B2010E941F7041E02D
:1044800060E080E00E94F0706B017C0120E030E091
:104490004EE554EC0E9495CC882309F40BC2A296F9
:1044A0000CAD1DAD2EAD3FADA297B301A201CE0163
:1044B00001960E9484923FEF231A330A43E02416A8
:1044C000310409F097CF5FEF851A950A83E08816CB
:1044D000910409F05FCF40E0BE016B5D7F4FCE01DC
:1044E00001960E9444902DA13EA14FA158A5A296ED
:1044F0002CAF3DAF4EAF5FAFA29720E030E0A901F7
:10450000A2966CAD7DAD8EAD9FADA2970E94FBCC07
:104510002B013C0189A59AA5ABA5BCA5A6968CAF9D
:104520009DAFAEAFBFAFA69720E030E0A901BC01C0
:10453000CD010E94FBCC6B017C018DA49EA4AFA495
:10454000B8A89B01AC01C301B2010E9409CEA5012C
:1045500094010E9409CEAA966CAF7DAF8EAF9FAF3B
:10456000AA97A7019601A2966CAD7DAD8EAD9FADC9
:10457000A2970E9409CEA50194010E9409CE9B0139
:10458000AC01AA966CAD7DAD8EAD9FADAA970E9491
:1045900008CE6B017C01A6962CAD3DAD4EAD5FAD56
:1045A000A697C301B2010E9409CEA50194010E9401
:1045B00009CE9B01AC01AA966CAD7DAD8EAD9FADD1
:1045C000AA970E9408CE4B015C01A7019601C70182
:1045D000B6010E94FBCC2B013C01A5019401C50151
:1045E000B4010E94FBCC9B01AC01C301B2010E944B
:1045F00009CE20E030E040E85FE30E9409CE0E944F
:1046000014D12B013C01C701B6019058A3019201BE
:104610000E94ECCEA2966CAF7DAF8EAF9FAFA297FB
:104620006093550D7093560D8093570D9093580DD0
:10463000C501B4019058A30192010E94ECCEA69648
:104640006CAF7DAF8EAF9FAFA6976093590D7093FF
:104650005A0D80935B0D90935C0DA301920160E075
:1046600070E080E89FE30E94ECCE6B017C016093D8
:104670005D0D70935E0D80935F0D9093600DA2961B
:104680006CAD7DAD8EAD9FADA2979058A701960100
:104690000E94ECCE4B015C019B01AC010E94FBCC63
:1046A00020E030E040E85FE30E9409CE0E9414D190
:1046B0002B013C019B01AC0160E070E080E89FE3CE
:1046C0000E94ECCEAA966CAF7DAF8EAF9FAFAA973B
:1046D00060933D0D70933E0D80933F0D9093400D80
:1046E000A301920160E070E0CB010E94ECCEAE9697
:1046F0006CAF7DAF8EAF9FAFAE976093410D70935F
:10470000420D8093430D9093440DA3019201C50186
:10471000B4010E94ECCE4B015C016093450D709397
:10472000460D8093470D9093480D9B01AC01A696D2
:104730006CAD7DAD8EAD9FADA6970E94FBCC2B01DD
:104740003C01AE962CAD3DAD4EAD5FADAE97C70111
:10475000B6010E94FBCC9B01AC01C301B2010E94D7
:1047600008CEE2966CAF7DAF8EAF9FAFE297AA9670
:104770002CAD3DAD4EAD5FADAA97C701B6010E940D
:10478000FBCC6B017C01A5019401A2966CAD7DADC3
:104790008EAD9FADA2970E94FBCC9B01AC01C701DF
:1047A000B6010E9408CE2B013C01AE962CAD3DAD6A
:1047B0004EAD5FADAE97A2966CAD7DAD8EAD9FADAB
:1047C000A2970E94FBCC6B017C01AA962CAD3DAD5B
:1047D0004EAD5FADAA97A6966CAD7DAD8EAD9FAD8B
:1047E000A6970E94FBCC9B01AC01C701B6010E94B9
:1047F00008CE6B017C01E2962CAD3DAD4EAD5FADB8
:10480000E297CA01B9010E94FBCC4B015C01A301F4
:104810009201C301B2010E94FBCC9B01AC01C50116
:10482000B4010E9409CE4B015C01A7019601C701AA
:10483000B6010E94FBCC9B01AC01C501B4010E94F2
:1048400009CE0E9414D14B015C019B01AC01E296A0
:104850006CAD7DAD8EAD9FADE2970E94ECCE6093C6
:10486000490D70934A0D80934B0D90934C0DA5010B
:104870009401C301B2010E94ECCE60934D0D709380
:104880004E0D80934F0D9093500DA5019401C701DB
:10489000B6010E94ECCE6093510D7093520D80933F
:1048A000530D9093540D89EE91E00E943A990DE3D7
:1048B0001DE007C085E192E00E94909F84E792E0AE
:1048C0004CCDD8014D915D916D917D918D0126E08A
:1048D0008CE794E10E94F299BDE001361B0789F74D
:1048E0000E9401886091D40C7091D50C8091D60CF7
:1048F0009091D70C0E949CCC2091000D3091010D1D
:104900004091020D5091030D0E94FBCC2DA13EA1C0
:104910004FA158A50E94FBCC6B017C016091D80C83
:104920007091D90C8091DA0C9091DB0C0E949CCC98
:104930002091040D3091050D4091060D5091070D09
:104940000E94FBCC29A53AA54BA55CA50E94FBCCF7
:104950009B01AC01C701B6010E9409CE2DA53EA561
:104960004FA558A90E9409CE6B017C0122E0AB0142
:10497000BC018BE092E00E94F2994091EC0C5091C6
:10498000ED0C6091EE0C7091EF0C22E085E092E06E
:104990000E940D9A1092B90C1092BA0C1092BB0C96
:1049A0001092BC0C20912B0130912C0140912D01D3
:1049B00050912E01C701B6010E94FBCC0E945ECF30
:1049C0006093DC0C7093DD0C8093DE0C9093DF0C15
:1049D00081E00E9498B00E94A7B40E94468E81E0B8
:1049E0000E94299081E00E9498B080E092E00E94AD
:1049F000A486E6962CAD3DAD4EAD5FADE697209317
:104A00003C0C30933D0C40933E0C50933F0CD2C075
:104A10001092620DF101EB5AFF4F8081882309F457
:104A2000C9C08FE592E00CC081E08093620DF10176
:104A3000EB5AFF4F8081882309F4BCC08AE492E0DE
:104A40000E94E79FB7C04090F40C5090F50C609026
:104A5000F60C7090F70C8090F80C9090F90CA090E8
:104A6000FA0CB090FB0CC090FC0CD090FD0CE090C8
:104A7000FE0CF090FF0C03FF1AC0628573858485DD
:104A800095852091610D222331F023E333E34BEC34
:104A900051E40E94FBCC2091E40C3091E50C409154
:104AA000E60C5091E70C0E9408CE2B013C0104FF5C
:104AB0001BC0F10166857785808991892091610D00
:104AC000222331F023E333E34BEC51E40E94FBCC8F
:104AD0002091E80C3091E90C4091EA0C5091EB0CDC
:104AE0000E9408CE4B015C0105FF1DC0D10152960A
:104AF0006D917D918D919C9155972091610D22230F
:104B000031F023E333E34BEC51E40E94FBCC2091E2
:104B1000EC0C3091ED0C4091EE0C5091EF0C0E949A
:104B200008CE6B017C014092F40C5092F50C60921F
:104B3000F60C7092F70C8092F80C9092F90CA092FF
:104B4000FA0CB092FB0CC092FC0CD092FD0CE092DF
:104B5000FE0CF092FF0C06FF2DC0F10166897789EB
:104B6000808D918D2091610D222331F023E333E379
:104B70004BEC51E40E94FBCC20912F01309130018D
:104B800040913101509132010E94FBCC0E945ECFD6
:104B90006093E00C7093E10C8093E20C9093E30C33
:104BA00009C022FF07C083E399E00E943A99C1013E
:104BB0000E94255F0E9429956093420C7093430CDC
:104BC0008093440C9093450C0C94C63801FD02C0B0
:104BD0000C94F435D10116968D919C911797893CD0
:104BE000910509F45DC708F0F5C08335910509F416
:104BF00004C408F083C08A31910509F4E4C108F0C7
:104C00005AC08531910509F4BDC108F041C0833017
:104C1000910510F40C94EA358630910510F40C944B
:104C2000C638449711F00C94EA351DA218A680EFFF
:104C300092E00E948C9F60E08FE19FE00E94AA7446
:104C400064E27FE0CE0185960E945A4A19821C8256
:104C5000CE0185960E94C8741092460C86E49CE0B2
:104C600022969FAF8EAF22978DE1FE01B596DE01B1
:104C7000119601900D928A95E1F760E0CE010196C0
:104C80000E94416382EE92E00E948C9F0C94C63891
:104C90008731910509F480C108F47AC18831910502
:104CA00009F48DC1499711F00C94EA3580E00E9417
:104CB00072C40C94C6388032910509F482C280F423
:104CC0008C31910509F4C6C108F49CC18D31910560
:104CD00011F40C94C6384E9709F402C20C94EA35CC
:104CE0008235910508F085C38035910510F00C944C
:104CF000C6388A9709F4AAC20C94EA358D36910514
:104D000009F4D6C430F58336910509F401C460F482
:104D10008535910509F492C308F474C38C35910567
:104D200009F4ADC30C94EA358936910509F4B5C48C
:104D300030F48836910509F434C40C94EA358A3687
:104D4000910509F4C8C58B36910509F4DBC50C94AF
:104D5000EA358537910509F427C6F0F482379105C5
:104D600009F41CC630F48F36910509F4DCC50C94A7
:104D7000EA358337910509F409C68437910511F0A6
:104D80000C94EA358BEC91E00E94169887E591E04F
:104D90000E9416980C94C6388C38910509F442C4C8
:104DA00078F48737910511F00C94EA350E94DB8C7A
:104DB0000E94F4B60E94F4B60E94B2B60C94C638B3
:104DC0008E3B910509F4CCC4883C910509F411C6C9
:104DD0000C94EA358836B1E09B0711F40C94C2328A
:104DE00008F055C08D3D910509F4C6C7E0F48D3C2F
:104DF000910509F430C738F48B3C910509F4CDC610
:104E000008F48EC6E2C68F3C910509F438C708F451
:104E10002CC7813D910509F482C78C3D910509F4A9
:104E20009BC70C94EA358034F1E09F0711F40C9491
:104E30009932B8F4893141E0940709F4B6C730F4E7
:104E4000823E910509F4A8C70C94EA358E32A1E0A0
:104E50009A0709F4C4C78F32914009F4E4C70C944F
:104E6000EA358234E1E09E0711F40C94B23210F47A
:104E70000C949D328E3531E0930711F40C94B632C8
:104E80008336914011F40C94BB320C94EA35853F83
:104E900051E0950711F40C943F35B0F5823CB1E038
:104EA0009B0711F40C943135A8F48139F1E09F0788
:104EB00011F40C94FB34823931E0930711F40C9413
:104EC000FE348039914011F00C94EA350E94DB8C5D
:104ED0000C94C638843C51E0950711F40C94393594
:104EE00010F40C943435853CB1E09B0711F40C941C
:104EF0003C35843F914011F00C94EA3588EE96E001
:104F00000E94909F0C94C6388B35F2E09F0711F4F5
:104F10000C949635F8F4883542E0940711F40C941B
:104F2000443558F4863F914011F00C94EA3588EEF0
:104F300096E00E94909F0C94C6388935B2E09B079A
:104F400011F40C944A358A35924011F40C9458357A
:104F50000C94EA358F38F3E09F0768F48B3833E020
:104F6000930710F00C94C6388A37934011F40C94D0
:104F70009A350C94EA35873E934011F40C94CB3566
:104F80000C94EA351092880F0E949FA90C94C638A1
:104F90000E94DBA90C94C63817FD02C00C94C638D9
:104FA00060E08FE19FE00E94AA74F101EE5AFF4F8A
:104FB00060E0808191810E941EA90C94C6380E94F5
:104FC00010A90C94C63812FD02C00C94C638D10149
:104FD0005E964D915D916D917C9191978091890F35
:104FE000882311F40C94C6384093800F5093810F9E
:104FF0006093820F7093830F8FE59FE00E94CA44F5
:105000000C94C6388091890F8823F1F0C090800FEE
:10501000D090810FE090820FF090830F80E093E0BA
:105020000E943A99C701B6010E94D39840917C0F23
:1050300050917D0F60917E0F70917F0F8EE794E10C
:105040000E94749D0C94C63882E193E00E948C9F6C
:105050000C94C63817FD02C00C94C638F101EE5A04
:10506000FF4F008111818091890F882311F40C94E6
:10507000C6388FE59FE00E949C731092880F60E015
:105080008FE19FE00E94AA746091630E7091640E9C
:1050900026E5A8018FE59FE00E94487781110BC0AB
:1050A00084E393E00E943A99C8010E94C7980E9445
:1050B00001880C94C63889EA90E00E947F9560E0F0
:1050C0000E94C3BC81E080938A0F82E293E00E9439
:1050D0003A99C8010E94C7980E9401880C94C6386A
:1050E00017FD02C00C94C63860E08FE19FE00E947B
:1050F000AA74F101EE5AFF4F008111818091890F4E
:10510000882311F40C94C6381092880F8FE59FE025
:105110000E949C73C8010E9414AA882331F08CE875
:1051200090E10E948C9F0C94C63819821C82609179
:10513000630E7091640E21E0A801CE0101960E94D9
:1051400048778823C1F18C818430A9F5CE0101967E
:105150000E94C8744C855D856E857F858C899D898C
:10516000AE89BF89481759076A077B0750F4CE01FB
:1051700001960E944A490097F1F0FC01208121111B
:105180000CC081E08C838A8182608A83CE01019683
:105190000E9481BD882379F008C0253ED9F22E32C5
:1051A000C9F2838583FDD6CF06C0CE0101960E9449
:1051B000AD628111B4CF8CE790E10E948C9F0C947A
:1051C000C63817FD02C00C94C63860E08FE19FE03E
:1051D0000E94AA74F101EE5AFF4FC080D1808091E5
:1051E000890F882311F40C94C6381092880F8FE52C
:1051F0009FE00E949C731DA218A619821C82EE24B7
:10520000E3948E010F5F1F4F9E012E5B3F4FA6015F
:1052100062E47FE0CE0185960E9413BE882381F070
:10522000AE014E5B5F4FB801CE0185960E94847738
:10523000882331F088E593E00E948C9F0C94C63857
:1052400088E493E00E948C9F0C94C63813FD02C042
:105250000C94C638F101D2A0ED2CF3A0E8E1F9E0FE
:105260002BE12E0F849190E08E159F0509F4BBC0B1
:1052700031962E13F7CFF7FCB6C012FFA1C0F10193
:10528000868D978DA0A1B1A18F3F9105A105B10594
:1052900011F008F08FC061E08D2D0E94B394D10110
:1052A0005E966C918D2D0E948394F101C68CB78C13
:1052B0000C2D1B2D61E08D2D0E94B394011511055D
:1052C00009F462C00F3F110509F460C0F701FF2720
:1052D000EE5FF64DE4914E2F50E0FA013197EA303F
:1052E000F10508F04EC0EA5BFF4F0C94B9D184B5CC
:1052F000806884BDC7BC4EC084B5806284BDC8BC14
:1053000049C0809180008068809380008C2D9B2D07
:1053100090938900809388003DC0809180008062D6
:10532000809380008C2D9B2D90938B0080938A001E
:1053300031C08091B00080688093B000C092B3000B
:1053400029C08091B00080628093B000C092B40008
:1053500021C0809190008068809390008C2D9B2DBF
:10536000909399008093980015C08091900080627E
:10537000809390008C2D9B2D90939B0080939A009E
:1053800009C00038110514F460E001C061E08D2D02
:105390000E948394B7018BE099E00E947F9FD10126
:1053A0005E966D917C915F9786E099E00E94909D5A
:1053B0000C94C6388EEE98E00E94909F0C94C638EC
:1053C00062E08D2D0E94B394B70186E099E00E94BF
:1053D0007F9F8D2D0E945A94BC0189EE98E00E9417
:1053E000909D0C94C63887EB98E00E94909F0C9497
:1053F000C6381092250D0C94C63881E08093250D97
:105400000C94C63812FF13C0F101268D378D40A1D0
:1054100051A1A8EEB3E00E94EECD609337017093E6
:1054200038018093390190933A010C94C6380E9458
:10543000DB8C81E00E9402B40C94C63812FF15C0C8
:10544000D1015E962D913D914D915C919197A8EE81
:10545000B3E00E94EECD6093170D7093180D80930A
:10546000190D90931A0D0C94C6381092170D1092C6
:10547000180D1092190D10921A0D0C94C63803FFD6
:105480000DC0F10182859385A485B58580932301A4
:1054900090932401A0932501B093260104FF0DC031
:1054A000F10186859785A089B18980932701909322
:1054B0002801A0932901B0932A0105FF0DC0F10135
:1054C00082899389A489B58980932B0190932C01BB
:1054D000A0932D01B0932E010E94A7B4D1018C910D
:1054E00086FD02C00C94C6382091230D3091240D06
:1054F00056968D919D910D90BC91A02DF9018587B7
:105500009687A787B08B80810E949F9D0C94C63898
:1055100012FF0EC0D1015E962D913D914D915C918F
:105520009197A8EEB3E00E94EECD6B017C0106C01E
:1055300040E1C42E47E2D42EE12CF12C03FD5E9A0B
:10554000F101808184FD5E9AD1018C9185FD159ACF
:105550000E942995C60ED71EE81EF91E0E942995A5
:10556000A7019601261B370B480B590BDA01C9011D
:10557000803A9648A140B10518F40E9447B4EECF96
:10558000D1018C9183FD5E98F101808184FD5E984C
:10559000D1018C9185FD02C00C94C63815980C94ED
:1055A000C6380E949C9F182F81110C94C6380E9407
:1055B00029956093420C7093430C8093440C909314
:1055C000450C8091210283FF02C00C94C638F10182
:1055D0008081918193FF02C00C945C3692FF0AC0D7
:1055E000868D978DA0A1B1A1892B8A2B8B2B11F4CD
:1055F0000C945C36D1018D919C9192FD02C00C946B
:10560000C6389C012227317091FD02C00C9460368F
:10561000F101EC5AFF4F8081882311F40C948436F9
:105620000C9460360E949C9F182F81110C94C638F0
:105630000E9429956093420C7093430C8093440C14
:105640009093450C8091210283FF02C00C94C638D0
:10565000D1018D919C91119792FD02C00C94C63896
:1056600090FF0FC011E020E030E0A9015A966D9143
:105670007D918D919C915D970E9452D018160CF0EF
:1056800010E0F101668D778D80A191A10E949CCCE4
:10569000412F0E942A9A0C94C638C80133E096958F
:1056A00087953A95E1F781700E9407880C94C63877
:1056B0000E949C9F182F81110C94C6380E94299536
:1056C0006093420C7093430C8093440C9093450C70
:1056D0008091210283FF02C00C94C6380E94DB8CAB
:1056E000E090230DF090240DD1018D919C9191FFBC
:1056F0000AC0F101EC5AFF4F2081211104C022EAB7
:10570000E22E21E0F22E92FF1FC090FF0EC011E0AA
:1057100020E030E0A901F101628D738D848D958DBB
:105720000E9452D018160CF010E0D1015E966D91D7
:105730007D918D919C9191970E949CCC01E0212FAD
:10574000F70140810E94999A0E9429956093420C2A
:105750007093430C8093440C9093450C0C94C63882
:1057600023FF02C00C94C63882EA90E00E947F9525
:1057700060E00E94C3BC0E94EBB70E94DB8CD101A9
:105780008D919C91119792FF1BC090FF0EC011E06C
:1057900020E030E0A9015A966D917D918D919C9108
:1057A0005D970E9452D018160CF010E0F101668D42
:1057B000778D80A191A10E949CCC412F0E942A9AB2
:1057C0002091610130916201409163015091640127
:1057D00060915D0170915E0180915F019091600127
:1057E0000E9408CE6B017C0120E030E0A9010E94FC
:1057F00052D0181664F420E030E040E450E4C701D1
:10580000B6010E9495CC87FF0EC00C94C63820E0EC
:1058100030E040E450ECC701B6010E9452D01816A7
:1058200014F40C94C6380E9429956B017C01809079
:10583000610190906201A0906301B090640120E04A
:1058400030E040E05FE360915D0170915E01809126
:105850005F01909160010E9409CEA50194010E9410
:1058600095CC87FF2AC020E030E048EC51E4C50128
:10587000B4010E9452D0181604F50E942995DC014B
:10588000CB018C199D09AE09BF09893E9340A10542
:10589000B10578F080E00E9407880E9429956B018D
:1058A0007C016093420C7093430C8093440C909362
:1058B000450C81E00E948588BACF1092CE0E0E94DE
:1058C00029956093420C7093430C8093440C909301
:1058D000450C0C94C63880911B0D83FF02C00C94BC
:1058E000C63813FD02C00C94A336F10182A193A126
:1058F000A4A1B5A10197A105B10511F00C94A3369F
:105900000C94C63813FD02C00C94B136F10182A18B
:1059100093A1A4A1B5A10197A105B10511F00C9423
:10592000B1360C94C63812FF05C0D1015E968C9139
:105930000E9498B6F1018081918193FF11C082A1EC
:1059400093A1A4A1B5A120912102181619061A0647
:105950001B0614F4822B02C0815082230E9498B649
:105960008091210283FD02C00C94C63800E020E043
:1059700040E060E070E0CB010E94999A40E060E076
:1059800070E0CB010E942A9A0C94C6388FE098E010
:105990000E948C9F0E9470B60C94C63889E098E0F3
:1059A0000E94A4860C94C63817FD02C00C94C63819
:1059B000F101EE5AFF4F9081818120911E0F24FD4D
:1059C00014C0A92FB82F2EEC3EE090E08D918823D3
:1059D00039F0943129F09F5FF90181939F01F6CF4F
:1059E000E92FF0E0E253F14F10820E94EBB70C94E4
:1059F000C638E091230DF091240D8081282F11FFEE
:105A000007C0F101EC5AFF4F9081911101C080E075
:105A1000D10112969C91129792FF07C09E96CD904D
:105A2000DD90ED90FC90D19703C0C12CD12C760174
:105A300093FF05C0F101C2A8D3A8E4A8F5A8082FD8
:105A400010E03FE7839FF0011124E45EFD4FC08228
:105A5000D182E282F382821306C08091140D90916C
:105A6000150D0E94DE8520E030E0A901C701B601D6
:105A70000E9495CCB801811106C08DED97E00E947F
:105A8000909D0C94C63886EB97E00E947F9F22E0A1
:105A9000B701A60181EB97E00E940D9A0C94C638DD
:105AA00003FF0DC0F10182859385A485B5858093A0
:105AB000360290933702A0933802B093390204FF64
:105AC0000DC0F10186859785A089B18980933A023E
:105AD00090933B02A0933C02B0933D0205FF0DC0A2
